{
  "_format": "hh-sol-artifact-1",
  "contractName": "MultisigWallet",
  "sourceName": "contracts/MultisigWallet.sol",
  "abi": [
    {
      "inputs": [],
      "stateMutability": "payable",
      "type": "constructor"
    },
    {
      "anonymous": false,
      "inputs": [
        {
          "indexed": true,
          "internalType": "address",
          "name": "previousOwner",
          "type": "address"
        },
        {
          "indexed": true,
          "internalType": "address",
          "name": "newOwner",
          "type": "address"
        }
      ],
      "name": "OwnershipTransferred",
      "type": "event"
    },
    {
      "stateMutability": "payable",
      "type": "fallback"
    },
    {
      "inputs": [
        {
          "internalType": "address",
          "name": "owner",
          "type": "address"
        }
      ],
      "name": "addOwner",
      "outputs": [],
      "stateMutability": "nonpayable",
      "type": "function"
    },
    {
      "inputs": [
        {
          "internalType": "bytes32",
          "name": "transactionId",
          "type": "bytes32"
        }
      ],
      "name": "confirmTransaction",
      "outputs": [],
      "stateMutability": "nonpayable",
      "type": "function"
    },
    {
      "inputs": [],
      "name": "getBalance",
      "outputs": [
        {
          "internalType": "uint256",
          "name": "",
          "type": "uint256"
        }
      ],
      "stateMutability": "view",
      "type": "function"
    },
    {
      "inputs": [],
      "name": "getOwners",
      "outputs": [
        {
          "internalType": "address[]",
          "name": "",
          "type": "address[]"
        }
      ],
      "stateMutability": "view",
      "type": "function"
    },
    {
      "inputs": [
        {
          "internalType": "bytes32",
          "name": "transactionId",
          "type": "bytes32"
        }
      ],
      "name": "hasEnoughConfirmations",
      "outputs": [
        {
          "internalType": "bool",
          "name": "result",
          "type": "bool"
        }
      ],
      "stateMutability": "view",
      "type": "function"
    },
    {
      "inputs": [
        {
          "internalType": "address",
          "name": "",
          "type": "address"
        }
      ],
      "name": "isOwner",
      "outputs": [
        {
          "internalType": "bool",
          "name": "",
          "type": "bool"
        }
      ],
      "stateMutability": "view",
      "type": "function"
    },
    {
      "inputs": [],
      "name": "owner",
      "outputs": [
        {
          "internalType": "address",
          "name": "",
          "type": "address"
        }
      ],
      "stateMutability": "view",
      "type": "function"
    },
    {
      "inputs": [
        {
          "internalType": "address",
          "name": "owner",
          "type": "address"
        }
      ],
      "name": "removeOwner",
      "outputs": [],
      "stateMutability": "nonpayable",
      "type": "function"
    },
    {
      "inputs": [],
      "name": "renounceOwnership",
      "outputs": [],
      "stateMutability": "nonpayable",
      "type": "function"
    },
    {
      "inputs": [
        {
          "internalType": "address",
          "name": "owner",
          "type": "address"
        },
        {
          "internalType": "address",
          "name": "newOwner",
          "type": "address"
        }
      ],
      "name": "replaceOwner",
      "outputs": [],
      "stateMutability": "nonpayable",
      "type": "function"
    },
    {
      "inputs": [
        {
          "internalType": "bytes32",
          "name": "transactionId",
          "type": "bytes32"
        }
      ],
      "name": "revokeConfirmation",
      "outputs": [],
      "stateMutability": "nonpayable",
      "type": "function"
    },
    {
      "inputs": [
        {
          "internalType": "address payable",
          "name": "destination",
          "type": "address"
        },
        {
          "internalType": "uint256",
          "name": "code",
          "type": "uint256"
        },
        {
          "internalType": "uint256",
          "name": "amount",
          "type": "uint256"
        }
      ],
      "name": "submitTransaction",
      "outputs": [
        {
          "internalType": "bytes32",
          "name": "transactionId",
          "type": "bytes32"
        }
      ],
      "stateMutability": "nonpayable",
      "type": "function"
    },
    {
      "inputs": [
        {
          "internalType": "address",
          "name": "erc20Address",
          "type": "address"
        },
        {
          "internalType": "address payable",
          "name": "destination",
          "type": "address"
        },
        {
          "internalType": "uint256",
          "name": "code",
          "type": "uint256"
        },
        {
          "internalType": "uint256",
          "name": "amount",
          "type": "uint256"
        }
      ],
      "name": "submitTransaction",
      "outputs": [
        {
          "internalType": "bytes32",
          "name": "transactionId",
          "type": "bytes32"
        }
      ],
      "stateMutability": "nonpayable",
      "type": "function"
    },
    {
      "inputs": [],
      "name": "threshold",
      "outputs": [
        {
          "internalType": "uint256",
          "name": "",
          "type": "uint256"
        }
      ],
      "stateMutability": "view",
      "type": "function"
    },
    {
      "inputs": [
        {
          "internalType": "address",
          "name": "_erc20Address",
          "type": "address"
        },
        {
          "internalType": "address payable",
          "name": "_destination",
          "type": "address"
        },
        {
          "internalType": "uint256",
          "name": "_code",
          "type": "uint256"
        },
        {
          "internalType": "uint256",
          "name": "_amount",
          "type": "uint256"
        }
      ],
      "name": "transactionInfoOf",
      "outputs": [
        {
          "internalType": "bytes32",
          "name": "transactionId",
          "type": "bytes32"
        },
        {
          "internalType": "address",
          "name": "erc20Address",
          "type": "address"
        },
        {
          "internalType": "address payable",
          "name": "destination",
          "type": "address"
        },
        {
          "internalType": "uint256",
          "name": "code",
          "type": "uint256"
        },
        {
          "internalType": "uint256",
          "name": "amount",
          "type": "uint256"
        },
        {
          "internalType": "bool",
          "name": "isExecuted",
          "type": "bool"
        }
      ],
      "stateMutability": "view",
      "type": "function"
    },
    {
      "inputs": [
        {
          "internalType": "address",
          "name": "newOwner",
          "type": "address"
        }
      ],
      "name": "transferOwnership",
      "outputs": [],
      "stateMutability": "nonpayable",
      "type": "function"
    },
    {
      "stateMutability": "payable",
      "type": "receive"
    }
  ],
  "bytecode": "0x608060405261000d33610012565b610062565b600080546001600160a01b038381166001600160a01b0319831681178455604051919092169283917f8be0079c531659141344cd1fd0a4f28419497f9722a3daafe3b4186f6b6457e09190a35050565b61152d806100716000396000f3fe6080604052600436106100d15760003560e01c80638da5cb5b116100775780638da5cb5b14610222578063a0e67e2b1461024f578063a88a4c8914610271578063bed9cc8f14610291578063e20056e6146102b1578063ed820897146102d1578063f2fde38b146102f1578063f3fc536d1461031157005b806312065fe0146100da578063173825d9146100fc5780632f54bf6e1461011c57806342cde4e81461015c5780636735b35e146101725780637065cb48146101cd578063715018a6146101ed57806379716e431461020257005b366100d857005b005b3480156100e657600080fd5b50475b6040519081526020015b60405180910390f35b34801561010857600080fd5b506100d8610117366004611120565b610331565b34801561012857600080fd5b5061014c610137366004611120565b60026020526000908152604090205460ff1681565b60405190151581526020016100f3565b34801561016857600080fd5b506100e960035481565b34801561017e57600080fd5b5061019261018d36600461113d565b6104e3565b604080519687526001600160a01b039586166020880152939094169285019290925260608401526080830152151560a082015260c0016100f3565b3480156101d957600080fd5b506100d86101e8366004611120565b610569565b3480156101f957600080fd5b506100d8610670565b34801561020e57600080fd5b506100d861021d366004611183565b6106ab565b34801561022e57600080fd5b50610237610800565b6040516001600160a01b0390911681526020016100f3565b34801561025b57600080fd5b5061026461080f565b6040516100f3919061119c565b34801561027d57600080fd5b506100e961028c3660046111e9565b610871565b34801561029d57600080fd5b5061014c6102ac366004611183565b610892565b3480156102bd57600080fd5b506100d86102cc36600461121e565b61092f565b3480156102dd57600080fd5b506100e96102ec36600461113d565b610aaf565b3480156102fd57600080fd5b506100d861030c366004611120565b610ad0565b34801561031d57600080fd5b506100d861032c366004611183565b610b70565b3361033a610800565b6001600160a01b0316146103695760405162461bcd60e51b815260040161036090611257565b60405180910390fd5b6001600160a01b038116600090815260026020526040902054819060ff166103a35760405162461bcd60e51b81526004016103609061128c565b6001600160a01b0382166000908152600260205260408120805460ff191690555b6004546103d3906001906112d3565b8110156104a357826001600160a01b0316600482815481106103f7576103f76112ea565b6000918252602090912001546001600160a01b031614156104915760048054610422906001906112d3565b81548110610432576104326112ea565b600091825260209091200154600480546001600160a01b03909216918390811061045e5761045e6112ea565b9060005260206000200160006101000a8154816001600160a01b0302191690836001600160a01b031602179055506104a3565b8061049b81611300565b9150506103c4565b5060048054806104b5576104b561131b565b600082815260209020810160001990810180546001600160a01b03191690550190556104df610c47565b5050565b600080600080600080898989896040516020016105039493929190611331565b60408051808303601f19018152918152815160209283012060008181526001938490529190912060028101546003820154938201549154929e6001600160a01b039182169e509084169c50909a50909850600160a01b90910460ff169650945050505050565b33610572610800565b6001600160a01b0316146105985760405162461bcd60e51b815260040161036090611257565b6001600160a01b038116600090815260026020526040902054819060ff16156105d35760405162461bcd60e51b815260040161036090611364565b816001600160a01b0381166105e757600080fd5b826001600160a01b0381163b156105fd57600080fd5b6001600160a01b0384166000818152600260205260408120805460ff191660019081179091556004805491820181559091527f8a35acfbc15ff81a39ae7d344fd709f28e8600b4aa8c65c6b64bfe7fe36bd19b0180546001600160a01b031916909117905561066a610c47565b50505050565b33610679610800565b6001600160a01b03161461069f5760405162461bcd60e51b815260040161036090611257565b6106a96000610c75565b565b3360008181526002602052604090205460ff166106da5760405162461bcd60e51b81526004016103609061128c565b600082815260016020526040902054829015158061071157506000818152600160205260409020600301546001600160a01b031615155b6107545760405162461bcd60e51b815260206004820152601460248201527315d85b1b195d0e88151e081b9bdd08195e1a5cdd60621b6044820152606401610360565b60008381526001602090815260408083203380855260049091019092529091205484919060ff16156107c85760405162461bcd60e51b815260206004820152601c60248201527f57616c6c65743a20547820616c726561647920636f6e6669726d6564000000006044820152606401610360565b6000858152600160208181526040808420338552600401909152909120805460ff191690911790556107f985610cc5565b5050505050565b6000546001600160a01b031690565b6060600480548060200260200160405190810160405280929190818152602001828054801561086757602002820191906000526020600020905b81546001600160a01b03168152600190910190602001808311610849575b5050505050905090565b60006108806000858585610dd4565b905061088b816106ab565b9392505050565b600080805b600454811015610928576000848152600160205260408120600480549181019291849081106108c8576108c86112ea565b60009182526020808320909101546001600160a01b0316835282019290925260400190205460ff161561090357610900600183611393565b91505b6003548214156109165760019250610928565b8061092081611300565b915050610897565b5050919050565b33610938610800565b6001600160a01b03161461095e5760405162461bcd60e51b815260040161036090611257565b6001600160a01b038216600090815260026020526040902054829060ff166109985760405162461bcd60e51b81526004016103609061128c565b6001600160a01b038216600090815260026020526040902054829060ff16156109d35760405162461bcd60e51b815260040161036090611364565b60005b600454811015610a7157846001600160a01b0316600482815481106109fd576109fd6112ea565b6000918252602090912001546001600160a01b03161415610a5f578360048281548110610a2c57610a2c6112ea565b9060005260206000200160006101000a8154816001600160a01b0302191690836001600160a01b03160217905550610a71565b80610a6981611300565b9150506109d6565b5050506001600160a01b03918216600090815260026020526040808220805460ff199081169091559290931681529190912080549091166001179055565b6000610abd85858585610dd4565b9050610ac8816106ab565b949350505050565b33610ad9610800565b6001600160a01b031614610aff5760405162461bcd60e51b815260040161036090611257565b6001600160a01b038116610b645760405162461bcd60e51b815260206004820152602660248201527f4f776e61626c653a206e6577206f776e657220697320746865207a65726f206160448201526564647265737360d01b6064820152608401610360565b610b6d81610c75565b50565b3360008181526002602052604090205460ff16610b9f5760405162461bcd60e51b81526004016103609061128c565b60008281526001602090815260408083203380855260049091019092529091205483919060ff16610be25760405162461bcd60e51b8152600401610360906113ab565b6000848152600160205260409020600301548490600160a01b900460ff1615610c1d5760405162461bcd60e51b8152600401610360906113e2565b5050506000918252506001602090815260408083203384526004019091529020805460ff19169055565b600454600090600390610c5b906002611419565b610c659190611438565b905080610c70575060015b600355565b600080546001600160a01b038381166001600160a01b0319831681178455604051919092169283917f8be0079c531659141344cd1fd0a4f28419497f9722a3daafe3b4186f6b6457e09190a35050565b3360008181526002602052604090205460ff16610cf45760405162461bcd60e51b81526004016103609061128c565b60008281526001602090815260408083203380855260049091019092529091205483919060ff16610d375760405162461bcd60e51b8152600401610360906113ab565b6000848152600160205260409020600301548490600160a01b900460ff1615610d725760405162461bcd60e51b8152600401610360906113e2565b610d7b85610892565b156107f9576000858152600160205260409020600281015460038201548254610db1926001600160a01b03908116921690610e6d565b15610dcc5760038101805460ff60a01b1916600160a01b1790555b505050505050565b600084848484604051602001610ded9493929190611331565b60408051601f19818403018152918152815160209283012060008181526001909352912054909150610ac85760008181526001602081905260409091206002810180546001600160a01b03808a166001600160a01b0319928316179092556003830180549289169290911691909117905583815501839055949350505050565b60006001600160a01b038416610eb9576040516001600160a01b0384169083156108fc029084906000818181858888f19350505050158015610eb3573d6000803e3d6000fd5b50610ecd565b610ecd6001600160a01b0385168484610ed7565b5060019392505050565b604080516001600160a01b038416602482015260448082018490528251808303909101815260649091019091526020810180516001600160e01b031663a9059cbb60e01b179052610f29908490610f2e565b505050565b6000610f83826040518060400160405280602081526020017f5361666545524332303a206c6f772d6c6576656c2063616c6c206661696c6564815250856001600160a01b03166110009092919063ffffffff16565b805190915015610f295780806020019051810190610fa1919061145a565b610f295760405162461bcd60e51b815260206004820152602a60248201527f5361666545524332303a204552433230206f7065726174696f6e20646964206e6044820152691bdd081cdd58d8d9595960b21b6064820152608401610360565b6060610ac8848460008585843b6110595760405162461bcd60e51b815260206004820152601d60248201527f416464726573733a2063616c6c20746f206e6f6e2d636f6e74726163740000006044820152606401610360565b600080866001600160a01b0316858760405161107591906114a8565b60006040518083038185875af1925050503d80600081146110b2576040519150601f19603f3d011682016040523d82523d6000602084013e6110b7565b606091505b50915091506110c78282866110d2565b979650505050505050565b606083156110e157508161088b565b8251156110f15782518084602001fd5b8160405162461bcd60e51b815260040161036091906114c4565b6001600160a01b0381168114610b6d57600080fd5b60006020828403121561113257600080fd5b813561088b8161110b565b6000806000806080858703121561115357600080fd5b843561115e8161110b565b9350602085013561116e8161110b565b93969395505050506040820135916060013590565b60006020828403121561119557600080fd5b5035919050565b6020808252825182820181905260009190848201906040850190845b818110156111dd5783516001600160a01b0316835292840192918401916001016111b8565b50909695505050505050565b6000806000606084860312156111fe57600080fd5b83356112098161110b565b95602085013595506040909401359392505050565b6000806040838503121561123157600080fd5b823561123c8161110b565b9150602083013561124c8161110b565b809150509250929050565b6020808252818101527f4f776e61626c653a2063616c6c6572206973206e6f7420746865206f776e6572604082015260600190565b6020808252601790820152762bb0b63632ba1d103737ba103b30b634b21027bbb732b960491b604082015260600190565b634e487b7160e01b600052601160045260246000fd5b6000828210156112e5576112e56112bd565b500390565b634e487b7160e01b600052603260045260246000fd5b6000600019821415611314576113146112bd565b5060010190565b634e487b7160e01b600052603160045260246000fd5b6bffffffffffffffffffffffff19606095861b811682529390941b90921660148401526028830152604882015260680190565b6020808252601590820152742bb0b63632ba1d1030b63932b0b23c9037bbb732b960591b604082015260600190565b600082198211156113a6576113a66112bd565b500190565b6020808252601b908201527f57616c6c65743a205478206973206e6f7420636f6e6669726d65640000000000604082015260600190565b6020808252601b908201527f57616c6c65743a20547820616c72656164792065786563757465640000000000604082015260600190565b6000816000190483118215151615611433576114336112bd565b500290565b60008261145557634e487b7160e01b600052601260045260246000fd5b500490565b60006020828403121561146c57600080fd5b8151801515811461088b57600080fd5b60005b8381101561149757818101518382015260200161147f565b8381111561066a5750506000910152565b600082516114ba81846020870161147c565b9190910192915050565b60208152600082518060208401526114e381604085016020870161147c565b601f01601f1916919091016040019291505056fea2646970667358221220c243dc747899c9dcb82126fc8fdeee991fa4d2bda179e17813a4ce5aa295af3664736f6c63430008090033",
  "linkReferences": {},
  "deployedLinkReferences": {}
}