{
  "_format": "hh-sol-artifact-1",
  "contractName": "L7InGameExchange",
  "sourceName": "contracts/L7InGameExchange.sol",
  "abi": [
    {
      "inputs": [],
      "stateMutability": "nonpayable",
      "type": "constructor"
    },
    {
      "anonymous": false,
      "inputs": [
        {
          "indexed": true,
          "internalType": "address",
          "name": "account",
          "type": "address"
        },
        {
          "indexed": true,
          "internalType": "address",
          "name": "erc20",
          "type": "address"
        },
        {
          "indexed": false,
          "internalType": "uint256",
          "name": "amount",
          "type": "uint256"
        },
        {
          "indexed": false,
          "internalType": "uint256",
          "name": "timestamp",
          "type": "uint256"
        }
      ],
      "name": "ExchangeBurn",
      "type": "event"
    },
    {
      "anonymous": false,
      "inputs": [
        {
          "indexed": true,
          "internalType": "address",
          "name": "account",
          "type": "address"
        },
        {
          "indexed": true,
          "internalType": "address",
          "name": "erc20",
          "type": "address"
        },
        {
          "indexed": false,
          "internalType": "uint256",
          "name": "amount",
          "type": "uint256"
        },
        {
          "indexed": false,
          "internalType": "uint256",
          "name": "timestamp",
          "type": "uint256"
        }
      ],
      "name": "ExchangeDeposit",
      "type": "event"
    },
    {
      "anonymous": false,
      "inputs": [
        {
          "indexed": true,
          "internalType": "address",
          "name": "previousOwner",
          "type": "address"
        },
        {
          "indexed": true,
          "internalType": "address",
          "name": "newOwner",
          "type": "address"
        }
      ],
      "name": "OwnershipTransferred",
      "type": "event"
    },
    {
      "inputs": [
        {
          "internalType": "address",
          "name": "erc20",
          "type": "address"
        },
        {
          "internalType": "uint256",
          "name": "amount",
          "type": "uint256"
        }
      ],
      "name": "burn",
      "outputs": [],
      "stateMutability": "nonpayable",
      "type": "function"
    },
    {
      "inputs": [
        {
          "internalType": "address",
          "name": "erc20",
          "type": "address"
        },
        {
          "internalType": "uint256",
          "name": "amount",
          "type": "uint256"
        }
      ],
      "name": "deposit",
      "outputs": [],
      "stateMutability": "nonpayable",
      "type": "function"
    },
    {
      "inputs": [],
      "name": "owner",
      "outputs": [
        {
          "internalType": "address",
          "name": "",
          "type": "address"
        }
      ],
      "stateMutability": "view",
      "type": "function"
    },
    {
      "inputs": [],
      "name": "renounceOwnership",
      "outputs": [],
      "stateMutability": "nonpayable",
      "type": "function"
    },
    {
      "inputs": [
        {
          "internalType": "address",
          "name": "newOwner",
          "type": "address"
        }
      ],
      "name": "transferOwnership",
      "outputs": [],
      "stateMutability": "nonpayable",
      "type": "function"
    }
  ],
  "bytecode": "0x608060405234801561001057600080fd5b5061001a3361001f565b61006f565b600080546001600160a01b038381166001600160a01b0319831681178455604051919092169283917f8be0079c531659141344cd1fd0a4f28419497f9722a3daafe3b4186f6b6457e09190a35050565b6108398061007e6000396000f3fe608060405234801561001057600080fd5b50600436106100575760003560e01c806347e7ef241461005c578063715018a6146100715780638da5cb5b146100795780639dc29fac14610098578063f2fde38b146100ab575b600080fd5b61006f61006a366004610670565b6100be565b005b61006f61016e565b600054604080516001600160a01b039092168252519081900360200190f35b61006f6100a6366004610670565b6101a4565b61006f6100b936600461069a565b6102b8565b600081116100e75760405162461bcd60e51b81526004016100de906106b5565b60405180910390fd5b6001600160a01b03821661010d5760405162461bcd60e51b81526004016100de906106ea565b816101236001600160a01b038216333085610353565b604080518381524260208201526001600160a01b0385169133917fe8be7bca7053d06517c5ee985fcf68b2eb6b2df6887b9c696be8f205c926faa991015b60405180910390a3505050565b6000546001600160a01b031633146101985760405162461bcd60e51b81526004016100de90610731565b6101a260006103b3565b565b6000546001600160a01b031633146101ce5760405162461bcd60e51b81526004016100de90610731565b600081116101ee5760405162461bcd60e51b81526004016100de906106b5565b6001600160a01b0382166102145760405162461bcd60e51b81526004016100de906106ea565b60405163079cc67960e41b81523060048201526024810182905282906001600160a01b038216906379cc679090604401600060405180830381600087803b15801561025e57600080fd5b505af1158015610272573d6000803e3d6000fd5b5050604080518581524260208201526001600160a01b03871693503392507f69734051c8e4a75e6df361e27a4d177f3b56d327c7a663120c3ce64642c9deac9101610161565b6000546001600160a01b031633146102e25760405162461bcd60e51b81526004016100de90610731565b6001600160a01b0381166103475760405162461bcd60e51b815260206004820152602660248201527f4f776e61626c653a206e6577206f776e657220697320746865207a65726f206160448201526564647265737360d01b60648201526084016100de565b610350816103b3565b50565b604080516001600160a01b0385811660248301528416604482015260648082018490528251808303909101815260849091019091526020810180516001600160e01b03166323b872dd60e01b1790526103ad908590610403565b50505050565b600080546001600160a01b038381166001600160a01b0319831681178455604051919092169283917f8be0079c531659141344cd1fd0a4f28419497f9722a3daafe3b4186f6b6457e09190a35050565b6000610458826040518060400160405280602081526020017f5361666545524332303a206c6f772d6c6576656c2063616c6c206661696c6564815250856001600160a01b03166104da9092919063ffffffff16565b8051909150156104d557808060200190518101906104769190610766565b6104d55760405162461bcd60e51b815260206004820152602a60248201527f5361666545524332303a204552433230206f7065726174696f6e20646964206e6044820152691bdd081cdd58d8d9595960b21b60648201526084016100de565b505050565b60606104e984846000856104f3565b90505b9392505050565b6060824710156105545760405162461bcd60e51b815260206004820152602660248201527f416464726573733a20696e73756666696369656e742062616c616e636520666f6044820152651c8818d85b1b60d21b60648201526084016100de565b843b6105a25760405162461bcd60e51b815260206004820152601d60248201527f416464726573733a2063616c6c20746f206e6f6e2d636f6e747261637400000060448201526064016100de565b600080866001600160a01b031685876040516105be91906107b4565b60006040518083038185875af1925050503d80600081146105fb576040519150601f19603f3d011682016040523d82523d6000602084013e610600565b606091505b509150915061061082828661061b565b979650505050505050565b6060831561062a5750816104ec565b82511561063a5782518084602001fd5b8160405162461bcd60e51b81526004016100de91906107d0565b80356001600160a01b038116811461066b57600080fd5b919050565b6000806040838503121561068357600080fd5b61068c83610654565b946020939093013593505050565b6000602082840312156106ac57600080fd5b6104ec82610654565b6020808252818101527f4c37496e47616d6545786368616e67653a20496e76616c696420416d6f756e74604082015260600190565b60208082526027908201527f4c37496e47616d6545786368616e67653a20496e76616c6964204552433230206040820152664164647265737360c81b606082015260800190565b6020808252818101527f4f776e61626c653a2063616c6c6572206973206e6f7420746865206f776e6572604082015260600190565b60006020828403121561077857600080fd5b815180151581146104ec57600080fd5b60005b838110156107a357818101518382015260200161078b565b838111156103ad5750506000910152565b600082516107c6818460208701610788565b9190910192915050565b60208152600082518060208401526107ef816040850160208701610788565b601f01601f1916919091016040019291505056fea26469706673582212209941addaf5aec2cc1539daeaaaefd5d7006b9786155addb1d015d510221f7c0264736f6c63430008090033",
  "linkReferences": {},
  "deployedLinkReferences": {}
}