{
  "_format": "hh-sol-artifact-1",
  "contractName": "L7InGameExchange",
  "sourceName": "contracts/L7InGameExchange.sol",
  "abi": [
    {
      "inputs": [],
      "stateMutability": "nonpayable",
      "type": "constructor"
    },
    {
      "anonymous": false,
      "inputs": [
        {
          "indexed": true,
          "internalType": "address",
          "name": "account",
          "type": "address"
        },
        {
          "indexed": true,
          "internalType": "address",
          "name": "erc20",
          "type": "address"
        },
        {
          "indexed": false,
          "internalType": "uint256",
          "name": "amount",
          "type": "uint256"
        },
        {
          "indexed": false,
          "internalType": "uint256",
          "name": "timestamp",
          "type": "uint256"
        }
      ],
      "name": "ExchangeBurn",
      "type": "event"
    },
    {
      "anonymous": false,
      "inputs": [
        {
          "indexed": true,
          "internalType": "address",
          "name": "account",
          "type": "address"
        },
        {
          "indexed": true,
          "internalType": "address",
          "name": "erc20",
          "type": "address"
        },
        {
          "indexed": false,
          "internalType": "uint256",
          "name": "amount",
          "type": "uint256"
        },
        {
          "indexed": false,
          "internalType": "uint256",
          "name": "timestamp",
          "type": "uint256"
        }
      ],
      "name": "ExchangeDeposit",
      "type": "event"
    },
    {
      "anonymous": false,
      "inputs": [
        {
          "indexed": true,
          "internalType": "address",
          "name": "previousOwner",
          "type": "address"
        },
        {
          "indexed": true,
          "internalType": "address",
          "name": "newOwner",
          "type": "address"
        }
      ],
      "name": "OwnershipTransferred",
      "type": "event"
    },
    {
      "inputs": [
        {
          "internalType": "address",
          "name": "erc20",
          "type": "address"
        },
        {
          "internalType": "uint256",
          "name": "amount",
          "type": "uint256"
        }
      ],
      "name": "burn",
      "outputs": [],
      "stateMutability": "nonpayable",
      "type": "function"
    },
    {
      "inputs": [
        {
          "internalType": "address",
          "name": "erc20",
          "type": "address"
        },
        {
          "internalType": "uint256",
          "name": "amount",
          "type": "uint256"
        }
      ],
      "name": "deposit",
      "outputs": [],
      "stateMutability": "nonpayable",
      "type": "function"
    },
    {
      "inputs": [],
      "name": "owner",
      "outputs": [
        {
          "internalType": "address",
          "name": "",
          "type": "address"
        }
      ],
      "stateMutability": "view",
      "type": "function"
    },
    {
      "inputs": [],
      "name": "renounceOwnership",
      "outputs": [],
      "stateMutability": "nonpayable",
      "type": "function"
    },
    {
      "inputs": [
        {
          "internalType": "address",
          "name": "newOwner",
          "type": "address"
        }
      ],
      "name": "transferOwnership",
      "outputs": [],
      "stateMutability": "nonpayable",
      "type": "function"
    }
  ],
  "bytecode": "0x608060405234801561001057600080fd5b5061002d61002261003260201b60201c565b61003a60201b60201c565b6100fe565b600033905090565b60008060009054906101000a900473ffffffffffffffffffffffffffffffffffffffff169050816000806101000a81548173ffffffffffffffffffffffffffffffffffffffff021916908373ffffffffffffffffffffffffffffffffffffffff1602179055508173ffffffffffffffffffffffffffffffffffffffff168173ffffffffffffffffffffffffffffffffffffffff167f8be0079c531659141344cd1fd0a4f28419497f9722a3daafe3b4186f6b6457e060405160405180910390a35050565b6110998061010d6000396000f3fe608060405234801561001057600080fd5b50600436106100575760003560e01c806347e7ef241461005c578063715018a6146100785780638da5cb5b146100825780639dc29fac146100a0578063f2fde38b146100bc575b600080fd5b61007660048036038101906100719190610a38565b6100d8565b005b610080610229565b005b61008a6102b1565b6040516100979190610a87565b60405180910390f35b6100ba60048036038101906100b59190610a38565b6102da565b005b6100d660048036038101906100d19190610aa2565b6104e5565b005b6000811161011b576040517f08c379a000000000000000000000000000000000000000000000000000000000815260040161011290610b2c565b60405180910390fd5b600073ffffffffffffffffffffffffffffffffffffffff168273ffffffffffffffffffffffffffffffffffffffff16141561018b576040517f08c379a000000000000000000000000000000000000000000000000000000000815260040161018290610bbe565b60405180910390fd5b60008290506101bd3330848473ffffffffffffffffffffffffffffffffffffffff166105dd909392919063ffffffff16565b8273ffffffffffffffffffffffffffffffffffffffff163373ffffffffffffffffffffffffffffffffffffffff167fe8be7bca7053d06517c5ee985fcf68b2eb6b2df6887b9c696be8f205c926faa9844260405161021c929190610bed565b60405180910390a3505050565b610231610666565b73ffffffffffffffffffffffffffffffffffffffff1661024f6102b1565b73ffffffffffffffffffffffffffffffffffffffff16146102a5576040517f08c379a000000000000000000000000000000000000000000000000000000000815260040161029c90610c62565b60405180910390fd5b6102af600061066e565b565b60008060009054906101000a900473ffffffffffffffffffffffffffffffffffffffff16905090565b6102e2610666565b73ffffffffffffffffffffffffffffffffffffffff166103006102b1565b73ffffffffffffffffffffffffffffffffffffffff1614610356576040517f08c379a000000000000000000000000000000000000000000000000000000000815260040161034d90610c62565b60405180910390fd5b60008111610399576040517f08c379a000000000000000000000000000000000000000000000000000000000815260040161039090610b2c565b60405180910390fd5b600073ffffffffffffffffffffffffffffffffffffffff168273ffffffffffffffffffffffffffffffffffffffff161415610409576040517f08c379a000000000000000000000000000000000000000000000000000000000815260040161040090610bbe565b60405180910390fd5b60008290508073ffffffffffffffffffffffffffffffffffffffff166342966c68836040518263ffffffff1660e01b81526004016104479190610c82565b600060405180830381600087803b15801561046157600080fd5b505af1158015610475573d6000803e3d6000fd5b505050508273ffffffffffffffffffffffffffffffffffffffff163373ffffffffffffffffffffffffffffffffffffffff167f69734051c8e4a75e6df361e27a4d177f3b56d327c7a663120c3ce64642c9deac84426040516104d8929190610bed565b60405180910390a3505050565b6104ed610666565b73ffffffffffffffffffffffffffffffffffffffff1661050b6102b1565b73ffffffffffffffffffffffffffffffffffffffff1614610561576040517f08c379a000000000000000000000000000000000000000000000000000000000815260040161055890610c62565b60405180910390fd5b600073ffffffffffffffffffffffffffffffffffffffff168173ffffffffffffffffffffffffffffffffffffffff1614156105d1576040517f08c379a00000000000000000000000000000000000000000000000000000000081526004016105c890610d0f565b60405180910390fd5b6105da8161066e565b50565b610660846323b872dd60e01b8585856040516024016105fe93929190610d2f565b604051602081830303815290604052907bffffffffffffffffffffffffffffffffffffffffffffffffffffffff19166020820180517bffffffffffffffffffffffffffffffffffffffffffffffffffffffff8381831617835250505050610732565b50505050565b600033905090565b60008060009054906101000a900473ffffffffffffffffffffffffffffffffffffffff169050816000806101000a81548173ffffffffffffffffffffffffffffffffffffffff021916908373ffffffffffffffffffffffffffffffffffffffff1602179055508173ffffffffffffffffffffffffffffffffffffffff168173ffffffffffffffffffffffffffffffffffffffff167f8be0079c531659141344cd1fd0a4f28419497f9722a3daafe3b4186f6b6457e060405160405180910390a35050565b6000610794826040518060400160405280602081526020017f5361666545524332303a206c6f772d6c6576656c2063616c6c206661696c65648152508573ffffffffffffffffffffffffffffffffffffffff166107f99092919063ffffffff16565b90506000815111156107f457808060200190518101906107b49190610d9e565b6107f3576040517f08c379a00000000000000000000000000000000000000000000000000000000081526004016107ea90610e3d565b60405180910390fd5b5b505050565b60606108088484600085610811565b90509392505050565b606082471015610856576040517f08c379a000000000000000000000000000000000000000000000000000000000815260040161084d90610ecf565b60405180910390fd5b61085f85610925565b61089e576040517f08c379a000000000000000000000000000000000000000000000000000000000815260040161089590610f3b565b60405180910390fd5b6000808673ffffffffffffffffffffffffffffffffffffffff1685876040516108c79190610fd5565b60006040518083038185875af1925050503d8060008114610904576040519150601f19603f3d011682016040523d82523d6000602084013e610909565b606091505b5091509150610919828286610938565b92505050949350505050565b600080823b905060008111915050919050565b6060831561094857829050610998565b60008351111561095b5782518084602001fd5b816040517f08c379a000000000000000000000000000000000000000000000000000000000815260040161098f9190611041565b60405180910390fd5b9392505050565b600080fd5b600073ffffffffffffffffffffffffffffffffffffffff82169050919050565b60006109cf826109a4565b9050919050565b6109df816109c4565b81146109ea57600080fd5b50565b6000813590506109fc816109d6565b92915050565b6000819050919050565b610a1581610a02565b8114610a2057600080fd5b50565b600081359050610a3281610a0c565b92915050565b60008060408385031215610a4f57610a4e61099f565b5b6000610a5d858286016109ed565b9250506020610a6e85828601610a23565b9150509250929050565b610a81816109c4565b82525050565b6000602082019050610a9c6000830184610a78565b92915050565b600060208284031215610ab857610ab761099f565b5b6000610ac6848285016109ed565b91505092915050565b600082825260208201905092915050565b7f4c37496e47616d6545786368616e67653a20496e76616c696420416d6f756e74600082015250565b6000610b16602083610acf565b9150610b2182610ae0565b602082019050919050565b60006020820190508181036000830152610b4581610b09565b9050919050565b7f4c37496e47616d6545786368616e67653a20496e76616c69642045524332302060008201527f4164647265737300000000000000000000000000000000000000000000000000602082015250565b6000610ba8602783610acf565b9150610bb382610b4c565b604082019050919050565b60006020820190508181036000830152610bd781610b9b565b9050919050565b610be781610a02565b82525050565b6000604082019050610c026000830185610bde565b610c0f6020830184610bde565b9392505050565b7f4f776e61626c653a2063616c6c6572206973206e6f7420746865206f776e6572600082015250565b6000610c4c602083610acf565b9150610c5782610c16565b602082019050919050565b60006020820190508181036000830152610c7b81610c3f565b9050919050565b6000602082019050610c976000830184610bde565b92915050565b7f4f776e61626c653a206e6577206f776e657220697320746865207a65726f206160008201527f6464726573730000000000000000000000000000000000000000000000000000602082015250565b6000610cf9602683610acf565b9150610d0482610c9d565b604082019050919050565b60006020820190508181036000830152610d2881610cec565b9050919050565b6000606082019050610d446000830186610a78565b610d516020830185610a78565b610d5e6040830184610bde565b949350505050565b60008115159050919050565b610d7b81610d66565b8114610d8657600080fd5b50565b600081519050610d9881610d72565b92915050565b600060208284031215610db457610db361099f565b5b6000610dc284828501610d89565b91505092915050565b7f5361666545524332303a204552433230206f7065726174696f6e20646964206e60008201527f6f74207375636365656400000000000000000000000000000000000000000000602082015250565b6000610e27602a83610acf565b9150610e3282610dcb565b604082019050919050565b60006020820190508181036000830152610e5681610e1a565b9050919050565b7f416464726573733a20696e73756666696369656e742062616c616e636520666f60008201527f722063616c6c0000000000000000000000000000000000000000000000000000602082015250565b6000610eb9602683610acf565b9150610ec482610e5d565b604082019050919050565b60006020820190508181036000830152610ee881610eac565b9050919050565b7f416464726573733a2063616c6c20746f206e6f6e2d636f6e7472616374000000600082015250565b6000610f25601d83610acf565b9150610f3082610eef565b602082019050919050565b60006020820190508181036000830152610f5481610f18565b9050919050565b600081519050919050565b600081905092915050565b60005b83811015610f8f578082015181840152602081019050610f74565b83811115610f9e576000848401525b50505050565b6000610faf82610f5b565b610fb98185610f66565b9350610fc9818560208601610f71565b80840191505092915050565b6000610fe18284610fa4565b915081905092915050565b600081519050919050565b6000601f19601f8301169050919050565b600061101382610fec565b61101d8185610acf565b935061102d818560208601610f71565b61103681610ff7565b840191505092915050565b6000602082019050818103600083015261105b8184611008565b90509291505056fea26469706673582212201f39ad9b64dd9a5805eb77433999a8a246180b3642bef047a215f0bfe0911d9e64736f6c63430008090033",
  "linkReferences": {},
  "deployedLinkReferences": {}
}